:020000040800F2
:10000000D8090020890100083F230008E31F0008E9
:100010003D2300088F0200087D2900080000000031
:100020000000000000000000000000009324000811
:1000300091020008000000009124000895240008A7
:10004000A3010008A3010008A3010008A301000800
:10005000A3010008A3010008A3010008A3010008F0
:10006000A3010008A3010008A3010008A3010008E0
:10007000A3010008A3010008A3010008A3010008D0
:10008000A3010008A3010008A301000865290008D6
:1000900071290008A3010008A3010008A3010008BA
:1000A000A3010008A3010008A3010008A3010008A0
:1000B000A3010008A3010008F9240008A301000817
:1000C000A3010008A3010008A3010008A301000880
:1000D000A3010008A3010008A30100085929000892
:1000E000A3010008A3010008A301000800F002F822
:1000F00000F03AF80AA090E8000C82448344AAF188
:100100000107DA4501D100F02FF8AFF2090EBAE885
:100110000F0013F0010F18BFFB1A43F0010318473B
:100120005036000070360000103A24BF78C878C1FD
:10013000FAD8520724BF30C830C144BF04680C60ED
:10014000704700000023002400250026103A28BF35
:1001500078C1FBD8520728BF30C148BF0B60704739
:100160001FB51FBD10B510BD00F058F81146FFF7C0
:10017000F7FF02F015FC00F076F803B4FFF7F2FF8A
:1001800003BC00F07DF8000009488047094800479B
:10019000FEE7FEE7FEE7FEE7FEE7FEE7FEE7FEE737
:1001A000FEE7FEE704480549054A064B7047000094
:1001B000F7240008ED000008D8030020D80900202B
:1001C000D8050020D80500204FF0000200B51346E6
:1001D00094469646203922BFA0E80C50A0E80C5067
:1001E000B1F12001BFF4F7AF090728BFA0E80C5018
:1001F00048BF0CC05DF804EB890028BF40F8042B11
:1002000008BF704748BF20F8022B11F0804F18BF7D
:1002100000F8012B7047704770477047754600F033
:100220002BF8AE4605006946534620F00700854688
:1002300018B020B5FFF7B6FFBDE820404FF000062C
:100240004FF000074FF000084FF0000B21F00701BE
:10025000AC46ACE8C009ACE8C009ACE8C009ACE801
:10026000C0098D46704710B50446AFF300802046A4
:10027000BDE81040FFF781BF0048704774030020BD
:1002800001491820ABBEFEE7260002007047FEE7DA
:10029000704772B6FEE790F82020012A07D0022AA4
:1002A00005D0416A41F48021416201207047006815
:1002B00042690A43426100207047000010B590F87F
:1002C00020300268012B07D0022B05D0416A41F48F
:1002D00080214162012010BDD2F8000240F00100EF
:1002E000C2F80002087D00F01F0301209840D2F8F8
:1002F0001C328343C2F81C32CB69B3B9D2F80C323A
:100300008343C2F80C328C894B6864F31F434C69F9
:1003100002EBC404C4F840320C890B6864F31F4339
:100320004C6902EBC404C4F84432CB69012B16D1EA
:10033000D2F80C320343C2F80C320C884B6864F3D9
:100340001F434C6902EBC404C4F840320C89CB68EB
:1003500064F31F434C6902EBC404C4F844328B6954
:10036000002BD2F804320FD053EA0003C2F8043253
:100370000B69002BD2F8143208D00343C2F81432B0
:10038000096A012904D008E08343EFE78343F5E7D6
:10039000D2F81C120143C2F81C12D2F8000220F05D
:1003A0000100C2F80002002010BD704770B590F83F
:1003B0002040012C05D0022C03D0416A41F4802159
:1003C00028E0046809B32469A40720D04FF4D87446
:1003D000056804EB01142D5915F0040595600568B6
:1003E0002D591AD0ED08556005682C5904F0020407
:1003F000D4604FF4DA74056804EB01142E5906F04A
:100400000F06082E0CD308250DE0E468DCE7416AEE
:1004100041F400114162012070BD6D0D1560E3E7EC
:100420002D5905F00F05156105682D59C5F30725F0
:10043000956105682C59240C54614FF4DC720468F2
:1004400002EB0112A4581C700468A458240A5C70C2
:100450000468A458240C9C700468A258120EDA7028
:100460004FF4DE72046802EB0112A4581C71046898
:10047000A458240A5C710468A458240C9C71046874
:10048000A258120EDA71006829B1016941F0200109
:100490000161002070BDC16841F02001C160F8E732
:1004A0002DE9F05F0546006800244669D0F8049005
:1004B0008768D0F80CB0D0F810A0D0F81880F107F9
:1004C00048D0F90714D001218160B80703D5284628
:1004D00000F00FFA0CE0780702D54FF4006407E053
:1004E000380702D54FF4805402E0284600F000FAA5
:1004F000F80516D529684FF480708860B80503D5D3
:10050000284600F0F8F90CE0780502D544F40054D0
:1005100007E0380502D544F4804402E0284600F0A4
:10052000E9F9F80316D529684FF480308860B803DC
:1005300003D5284600F0E1F90CE0780302D544F435
:10054000004407E0380302D544F4803402E0284632
:1005500000F0D2F9300707D55FEACB6004D52968EF
:10056000102044F40074C86070074FF0080707D5E6
:100570005FEA0B7004D52868C760284600F062F96E
:10058000B00706D52868C068800702D0284600F06A
:100590005BF9700607D55FEACA6004D529681020A8
:1005A00044F480640861B00607D55FEA0A7004D598
:1005B00028680761284600F06BF9F00606D5286820
:1005C0000069800702D0284600F063F9B00308D51F
:1005D0005FEAC96005D5296810204860284600F008
:1005E00059F9F00307D55FEA097004D52868476018
:1005F000284600F083F9300446D55FEA497040D5BB
:10060000F00504D55FEAC87001D044F00104B005DC
:1006100004D55FEA887001D544F00204700504D562
:100620005FEA487001D544F00404300529D518F07C
:10063000700F26D008F07000402815D006DC102876
:1006400009D020280AD0302816D10AE050280ED030
:10065000602811D10EE044F008040DE044F01004CD
:100660000AE044F0200407E044F0400404E044F0D1
:10067000800401E044F480742868816921F07001ED
:100680008161296804204860002C05D0686A2043F5
:1006900068622846FFF789FEBDE8F09F70B5040048
:1006A00003D094F8200010B104E0012070BD204672
:1006B00000F082F82068016841F00101016000F05B
:1006C00083FA0546052604E000F07EFA401B0A285E
:1006D00011D820684068C007F6D02068016821F072
:1006E0000201016000F070FA05460BE000F06CFAC0
:1006F000401B0A2806D9606A40F40030606284F822
:100700002060D2E7206840688007EFD4207E01286F
:10071000206801683DD021F080010160607E0128E1
:100720002068016838D021F040010160A07E0128D6
:100730002068016833D021F020010160E07E0128AB
:10074000206801682ED041F010010160207F01284F
:100750002068016829D021F008010160607F01282C
:100760002068016824D021F004010160D4E902016D
:100770000843D4E90412114308436168491E084341
:100780002168C86100206062012084F820000020F8
:1007900070BD41F08001C0E741F04001C5E741F084
:1007A0002001CAE721F01001CFE741F00801D4E7AA
:1007B00041F00401D9E7000010B586B00021009196
:1007C00001910291039100681B49884232D11B4874
:1007D000C16941F00071C161C16901F0007104910A
:1007E000816941F0040181618069154C00F00400C9
:1007F00004904FF4006000906946204600F0EEF847
:10080000A014009002200190032003906946204626
:1008100000F0E4F800221146132000F041FA132002
:1008200000F030FA00221146142000F039FA1420AA
:1008300000F028FA06B010BD00640040001002402D
:10084000000801407047000010B50F4B0F4A00210F
:10085000FFF7ACFD002816D10C480068A0F58071A8
:10086000233910D10848007800280CD1064801210E
:10087000801EC164002101628163816201640163A1
:100880008164C160016110BD020000208001002070
:10089000704770477047000070B5044690F820001C
:1008A000012804D0606A40F40020606218E0022051
:1008B00084F820002068016821F00101016000F047
:1008C00083F905460EE000BF00F07EF9401B0A28C0
:1008D00008D9606A40F400306062052084F8200086
:1008E000012070BD20684068C007EDD1606270BD16
:1008F000704770477047704770477047704710B532
:1009000090F821100022022905D00421816380F88B
:100910002020012010BD01680B6823F00E030B603E
:1009200001680B6823F001030B6090F84030C46B42
:10093000012101FA03F3636080F8211080F8202080
:10094000104610BD10B590F821100024022903D0E4
:100950000421816301243DE001680A6822F00E024F
:100960000A6001680A6822F001020A601A4A0168F6
:10097000914201D1012121E0174A1432914201D163
:1009800010211BE0144A2832914201D1891515E04B
:10099000114A3C32914201D189140FE00E4A503283
:1009A000914202D14FF4803108E00B4A6432914207
:1009B00002D14FF4801101E04FF08071064A083AED
:1009C0005160012180F82110002180F82010416B36
:1009D00001B18847204610BD080002402DE9F84FBC
:1009E000DFF8B8910024A9F1040B23460F2709F181
:1009F000040AABF1040EC9E00125A5402A40AA4231
:100A00007DD1674ED1F804C0ACEB0608B44532D0B6
:100A100014DCBCF1030F3AD009DCBCF1000F2AD082
:100A2000BCF1010F1CD0BCF1020F31D11DE0BCF1B3
:100A3000110F17D0BCF1120F2AD119E0B8F5881F99
:100A400019D006DCB8F5803F15D0B8F5801F1FD14E
:100A500011E0B8F5001F0ED0B8F5041F18D10AE058
:100A6000CB6815E0CB681B1D12E0CB6808330FE0A4
:100A7000CB680C330CE08B682BB1012B4FF00803D3
:100A800003D0456104E0042302E0056100E0002397
:100A9000FF2A01D8064601E000F104064FEA84056A
:100AA00001D9A5F12005D6F8008007FA05FC28EA4F
:100AB0000C0803FA05F548EA0508C6F800804D68F9
:100AC000ED0062D5374DAE6946F00106AE61AD6905
:100AD00024F0030605F001050095334D06EB050CE7
:100AE000DCF80850A607360F07FA06F825EA0805CD
:100AF000DFF8B880404503D14FF0000817E044E02C
:100B0000DFF8AC80404502D14FF001080FE0DFF87C
:100B1000A480404502D14FF0020808E0DFF8988039
:100B2000404502D14FF0030801E04FF0040808FAF5
:100B300006F848EA0508CCF808804D68D9F8006046
:100B4000ED024D4601D5164300E096432E604D68F8
:100B5000DAF80060AD02554601D5164300E0964331
:100B60002E604D68DBF80060AD035D4601D516438D
:100B700000E096432E604D68DEF80060ED03754698
:100B800001D5164300E096432E60641C0D682A468A
:100B9000E5407FF431AFBDE8F88F00000804014064
:100BA0000000111000100240000001400008014048
:100BB000000C014000100140001401400AB1016125
:100BC00070470904FBE70000014880687047000097
:100BD000500000200248816802781144816070470B
:100BE00050000020074810B5016841F01001016075
:100BF000032000F075F80F2000F006F800F024F84C
:100C0000002010BD0020024070B50D4D04464FF489
:100C10007A712878B1FBF0F00A490968B1FBF0F06D
:100C200000F0DCFA48B9102C07D200222146501EF1
:100C300000F036F800206C6070BD012070BD00002F
:100C4000500000205C0000200C4808B5816941F08C
:100C500001018161816901F001010091C16941F0E7
:100C60008051C161C06900F0805000900448416823
:100C700021F0E06141F00071416008BD00100240C8
:100C800000000140002809DB00F01F020121914013
:100C90004009800000F1E020C0F80011704700001A
:100CA000F0B40E4B1B680C46C3F30223C3F10705D7
:100CB000042D00D90425191D072901D2002300E0C5
:100CC000DB1E012606FA05F1491E214099409E408F
:100CD000761E16403143F0BC01F051BE0CED00E031
:100CE000064900F0070208684FF6FF03184040EA83
:100CF0000220034A10430860704700000CED00E03A
:100D00000000FA052DE9F0470F46050061D0434E7B
:100D1000306800F00700B84209D2306820F00700C0
:100D200038433060306800F00700B84251D128687D
:100D30003B4C810712D5400703D5606840F4E06062
:100D400060602878000703D5606840F460506060F8
:100D50006068A96820F0F000084360602878C00748
:100D600028D06868012810D02168022810D089078F
:100D700000292EDA616821F0030101436160FFF769
:100D800023FF804641F288390DE021688903EFE7AF
:100D90008901EDE7FFF718FFA0EB0801494502D9EB
:100DA0000320BDE8F0876068696800F00C00B0EBD4
:100DB000810FEFD1306800F00700B8420BD93068DE
:100DC00020F0070038433060306800F00700B84278
:100DD00001D00120E5E72878400705D56068E9687B
:100DE00020F4E060084360602878000706D560685A
:100DF000296920F4605040EAC100606000F038F8D2
:100E00006168084AC1F30311515CC8400649086093
:100E100006480068FFF7F8FE0020C2E70020024005
:100E200000100240563700085C00002054000020EB
:100E30000448054900684968044AC1F30221515C2D
:100E4000C84070475C000020001002406637000870
:100E50000448054900684968044AC1F3C221515C4D
:100E6000C84070475C000020001002406637000850
:100E70000E4A51680E4801F00C03042B11D0082BC8
:100E80000FD10C48C1F38343C903C05C0AD5516834
:100E9000084AC1F34041921E515C054A5043B0FBE1
:100EA000F1F07047044948437047000000100240C9
:100EB00000127A004637000800093D002DE9F84F7E
:100EC000040070D02078C04DC00749D06868C0F3D6
:100ED0008100012807D06868C0F38100022809D189
:100EE0006868C00306D52868800339D56068002883
:100EF000E7D035E06068B0F5803F0BD010B1B0F5B9
:100F0000A02F11D0286820F480302860286820F4B1
:100F1000802002E0286840F480302860606890B14A
:100F2000FFF752FE06460AE0286840F48020286059
:100F3000F0E700BFFFF748FE801B642873D82868DD
:100F40008003F7D50CE0FFF73FFE064605E000BF43
:100F5000FFF73AFE801B6428F0D828688003F7D496
:100F600020789A4E80074FF001094FF0000839D5DC
:100F7000686810F00C0F07D06868C0F38100022881
:100F800009D16868C00306D42868800714D5206991
:100F9000012808D110E02069B0B1C6F80090FFF731
:100FA00013FE074605E00AE1FFF70EFEC01B02280C
:100FB000C4D828688007F7D52868616920F0F80050
:100FC00040EAC10028600DE0C6F80080FFF7FCFD94
:100FD000074604E0FFF7F8FDC01B022823D8286865
:100FE0008007F7D4207800072CD57948A169D9B1BA
:100FF000C0F80090FFF7E8FD074604E0FFF7E4FDC6
:10100000C01B02280FD8686A8007F7D571484FF4D3
:10101000FA510068B0FBF1F0009000BF0098411E4B
:101020000091FAD20EE080E0C0F80080FFF7CCFD1E
:10103000074604E0FFF7C8FDC01B022875D8686AA0
:101040008007F7D42078400760D5E8690027C00002
:1010500008D4E86940F08050E861E869012700F0B1
:10106000805000905C480168C90513D4016883462C
:1010700041F480710160FFF7A7FD824606E000BFE2
:10108000FFF7A2FDA0EB0A0064284ED8DBF80000B1
:10109000C005F5D5E06801280AD008B1052813D0AD
:1010A000286A20F001002862286A20F0040002E08B
:1010B000286A40F001002862E06841F2883B98B15C
:1010C000FFF782FD82460BE0286A40F004002862A8
:1010D000EEE700BFFFF778FDA0EB0A0159455AD8AB
:1010E000286A8007F6D50CE0FFF76EFD824605E022
:1010F000FFF76AFDA0EB0A0159454CD8286A800722
:10110000F6D41FB1E86920F08050E861E06988B347
:101110006968C1F38101022944D00228C6F86080C1
:1011200004D0FFF751FD044638E034E0FFF74CFDF2
:10113000074604E0FFF748FDC01B02282BD82868AB
:101140008001F7D4206AB0F5803F05D16868A168B6
:1011500020F4003008436860D4E908010843696856
:1011600021F4741108436860C6F86090FFF72CFD05
:10117000044606E025E000BFFFF726FD001B02281D
:1011800009D828688001F7D51BE000BFFFF71CFDD8
:10119000001B022802D90320BDE8F88F28688001CF
:1011A000F4D40EE00128F7D06868226A00F4803198
:1011B000914204D1616A00F47010884201D001208C
:1011C000EAE70020E8E70000001002400000424289
:1011D000800442425C0000200070004010B5401EB8
:1011E000B0F1807F01D3012010BD4FF0E024606199
:1011F0000F21601701F0C3FB0020A06107202061D0
:10120000002010BD7047704710B590F83C20012AAF
:1012100022D0012280F83C20CA688C6822F44072F7
:1012200022434C6822F4806222430C6822F400625C
:1012300022430C6922F4805222434C6922F400526A
:101240002243C969002322F480420A4301684A64A8
:1012500080F83C30002010BD022010BD70B590F821
:101260003C20012A26D0012480F83C40022280F84C
:101270003D2003685A689D6822F070060A68324370
:101280005A600D4B02689A4208D0B2F1804F05D0E7
:101290000A4B9A4202D00A4B9A4204D1496825F07F
:1012A00080031943916080F83D40002180F83C1094
:1012B000084670BD022070BD002C014000040040B3
:1012C0000008004010B5040003D094F83D0010B1B0
:1012D00007E0012010BD002084F83C00204600F00B
:1012E0001FF8022084F83D00211D206801F00AF952
:1012F000012084F8460084F83E0084F83F0084F81A
:10130000400084F8410084F8420084F8430084F8E7
:10131000440084F8450084F83D00002010BD000022
:1013200008B5114A01681148914208D1816941F418
:1013300000618161806900F40060009008BD0C4A82
:101340009142FBD1C16941F00401C161C069002231
:1013500000F00400009011461E20FFF7A1FCBDE83C
:1013600008401E20FFF78EBC002C014000100240F8
:101370000008004090F83D10012901D0012070477D
:10138000022180F83D100168CA6842F00102CA607B
:1013900000680B49884208D0B0F1804F05D0094958
:1013A000884202D00849884204D1816801F00701CF
:1013B000062903D0016841F0010101600020704757
:1013C000002C0140000400400008004070B50446B5
:1013D00090F83C000025012817D0012684F83C60D5
:1013E000022084F83D002068826822F0770222F40F
:1013F0007F4282600868502838D00DDC20284FD00A
:1014000005DC90B3102811D14AE0022070BD3028CD
:1014100046D040280AD13BE060282FD070280DD05C
:10142000B0F5805F03D0B0F5005F12D0012584F8DD
:101430003D60002084F83C00284670BDCB68D1E9AF
:101440000121206801F0A7F82068816841F0770148
:1014500009E0CB68D1E90121206801F09CF82068FF
:10146000816841F480418160E1E719E0CA68496818
:10147000206801F045F95021206806E0CA684968F3
:10148000206801F04EF96021206801F08EF8CEE767
:10149000CA684968206801F033F940212068F4E700
:1014A000226801461046F0E72DE9F0410D460400A0
:1014B00003D094F83D0018B108E00120BDE8F081A8
:1014C000002084F83C00204600F040F8022084F818
:1014D0003D002068816844F2070291438160211D2C
:1014E000206801F00FF8226890689169166A2B68ED
:1014F000AF69034340F20330814341EA0721A86802
:10150000EF6908434FF6FC418843E96840EA072049
:10151000014328692F6A000140EA073008436968DF
:101520006D6926F0220646EA051529439360226874
:10153000906154F8460B0162012004F81F09E07520
:101540002076E0762077A0750020B7E700B585B05B
:10155000002100910191029103910268204801212C
:10156000B2F1804F24D01F4B9A421FD1C26942F082
:101570000202C261C26902F002020492826942F070
:10158000080282618069029100F008000490302016
:10159000009069461448FFF721FA1448416821F485
:1015A000406141F0E06141F40061416005B000BD7F
:1015B000C26942F00102C261C26902F001020492F2
:1015C000826942F0040282618069029100F00400A5
:1015D00004900320009069460548FFF7FFF9E5E70E
:1015E0000010024000040040000C014000000140D7
:1015F0000008014070B590F83E60044690F83F50F6
:1016000090F8423090F84320022021B104290ED0F6
:10161000012E1BD114E0012E18D1012B16D184F814
:101620003E0084F8420001220021206820E0012DC4
:101630000CD1012A0AD184F83F0084F8430014E059
:10164000012D03D1012B01D1012A01D0012070BD50
:1016500084F83E0084F83F0084F8420084F8430098
:1016600001220021206800F089FF01220421206866
:1016700000F084FF2068016841F001010160002052
:1016800070BD70472DE9F04104460068C6680569E1
:101690004FF00007A90713D5B10711D5F91E016155
:1016A00001202077206880698007204602D0FFF75C
:1016B000E8FF04E000F0A6F8204600F038F92777AC
:1016C000680716D5700714D521686FF0040008610B
:1016D000022020772068806910F4407F204602D0E5
:1016E000FFF7CFFF04E000F08DF8204600F01FF96F
:1016F0002777280715D5300713D521686FF0080024
:101700000861042020772068C0698007204602D045
:10171000FFF7B7FF04E000F075F8204600F007F986
:101720002777E80616D5F00614D521686FF010006B
:101730000861082020772068C06910F4407F2046A7
:1017400002D0FFF79EFF04E000F05CF8204600F0B6
:10175000EEF82777E80708D0F00706D021686FF089
:1017600001000861204600F031F9280608D530064E
:1017700006D521686FF0800008612046FFF742FD22
:10178000680608D5700606D521686FF0400008612C
:10179000204600F029FAA8060AD5B00608D5216827
:1017A0006FF0200008612046BDE8F041FFF72BBD37
:1017B000BDE8F08100B585B0002100910191029152
:1017C000039100680C49884213D10C48816941F0AB
:1017D000040181618069694600F0040004904FF4BF
:1017E0004070009002200190032003900448FFF70E
:1017F000F5F805B000BD0000002C014000100240CB
:1018000000080140704770B5044690F83C0000267F
:101810000D4601280FD0012084F83C006AB1042A4B
:101820001DD0082A2FD00C2A3FD00126002084F892
:101830003C00304670BD022070BD206800F0BEFE46
:101840002068816941F0080181612068816921F087
:1018500004018161206881692A69114311E02068CF
:1018600000F0D4FE2068816941F400618161206844
:10187000816921F480618161206881692A6941EA76
:1018800002218161D2E7206800F0ECFE2068C16986
:1018900041F00801C1612068C16921F00401C16102
:1018A0002068C1692A69114311E0206800F006FF31
:1018B0002068C16941F40061C1612068C16921F4F7
:1018C0008061C1612068C1692A6941EA0221C16160
:1018D000ACE710B5040003D094F83D0010B107E068
:1018E000012010BD002084F83C00204600F01EF8C6
:1018F000022084F83D00211D206800F003FE012035
:1019000084F8460084F83E0084F83F0084F84000E4
:1019100084F8410084F8420084F8430084F84400CD
:1019200084F8450084F83D00002010BD70477047E2
:1019300010B50446022249B104290ED0082913D05B
:1019400094F84100012816D0012010BD94F83E0003
:101950000128F9D184F83E200FE094F83F000128D7
:10196000F2D184F83F2008E094F840000128EBD140
:1019700084F8402001E084F841200122206800F032
:10198000FDFD0F492068884203D1426C42F40042B9
:1019900042642068884208D0B0F1804F05D00949E0
:1019A000884202D00849884204D1816801F00701C9
:1019B000062903D0016841F001010160002010BD3B
:1019C000002C014000040040000800402DE9F05FB9
:1019D00000687B4988426FD1DFF8E8A1DAF800009F
:1019E000406A794CDFF8E4B16061DBF800104D6AC1
:1019F00047F23058A561404503DBA0F57F40FF3832
:101A0000606148F6A04148434FF4DD6990FBF9F06E
:101A100001F046FC606001F027FCE06101F0B1F9E3
:101A20006B4A6C4B01F0C4F906460F46206B01F07F
:101A3000A8F932463B4601F0CDF801F073F9206376
:101A4000454503DBA5F57F45FF3DA561A06948F647
:101A5000A041484390FBF9F001F022FCA06001F0A6
:101A600003FC606301F08DF9594A5A4B01F0A0F96B
:101A700005460E46A06C01F084F92A46334601F073
:101A8000A9F801F04FF9A064E068534E00F11E017F
:101A900000253C2902D8E16C01290ED001F000FCA0
:101AA000024600214D4800F04BFC01F0DDFBA06236
:101AB000E06C28B1A06A05E080E0306845632EE064
:101AC000606AA06201F0ECFB0746E06901F0E8FB08
:101AD000014642483A46483000F032FC01F0C4FB6F
:101AE0003F4FE06200280BDD012202213846FFF75C
:101AF00065F8002201213846FFF760F8E06A0CE043
:101B0000002202213846FFF759F8012211463846D3
:101B1000FFF754F8E06A4042E062316848632069A8
:101B200000F11E013C2902D8E16C01290ED001F020
:101B3000B7FB024629480021903000F001FC01F07B
:101B400093FB2064E06C20B1206C04E03068856376
:101B50002EE0E06B206401F0A3FB0746606B01F010
:101B60009FFB01461D483A46D83000F0E9FB01F0E2
:101B70007BFB1C4F606400280BDD012220213846CE
:101B8000FFF71CF8002210213846FFF717F8606CA9
:101B90000CE0002220213846FFF710F80122102126
:101BA0003846FFF70BF8606C404260643168886328
:101BB000DAF800004562DBF800004562BDE8F09FFE
:101BC000000800400C020020000000205402002009
:101BD0007B14AE47E17A843FC401002060000020FE
:101BE000000C01400008014070477047704700003A
:101BF000F8B5016804460868CA684B6910F00F0F11
:101C00004FF0000559D003F0010602F490773743F6
:101C100065D0C10705D0D10503D5616C41F0010144
:101C20006164410705D5D90703D0616C41F0020119
:101C30006164810705D5D90703D0616C41F00401C7
:101C40006164010707D502F02001314303D0616CC4
:101C500041F008016164616C00293AD0800604D526
:101C6000900602D5204600F09DFD20684069616C19
:101C7000C0F38010090700D460B3204600F06BFD6C
:101C800020684069400621D52068143050E8001FC4
:101C900021F0400140E80012002AF5D1E06BA8B124
:101CA0006D494163E06BFEF74DFE002811D0E06BFB
:101CB000416B01B0BDE8F040084783060FD593069D
:101CC0000DD52046BDE8F84000F06CBD2046FFF77A
:101CD0008DFFF8BD2046FFF789FF6564F8BD266BD0
:101CE0002023012E7CD1C6067AD5D60678D5086881
:101CF0004868009048694FF00206400640D5E16B05
:101D0000086840680004000CE8D0A28D8242E5D942
:101D1000E085886920282DD020680C3050E8001F0D
:101D200021F4807140E80012002AF5D120681430B7
:101D300050E8001F21F0010140E80012002AF5D10F
:101D40002068143050E8001F21F0400140E80012E4
:101D5000002AF5D184F84230256320680C3050E821
:101D6000001F21F0100140E80012002AF5D1E06BBD
:101D7000FEF7C5FD6663A08DE18D401A81B22AE0B1
:101D8000A08DE18D401A81B2E08D0028A6D00029F7
:101D9000A4D022680C3252E8000F20F4907042E880
:101DA0000007002FF5D12068143050E8002F22F0F2
:101DB000010240E80027002FF5D184F84230256366
:101DC00020680C3050E8002F22F0100240E8002379
:101DD000002BF5D166632046FFF707FFF8BDFFE74C
:101DE00005062BD5150629D594F841002128F5D1F3
:101DF000A068B0F5805F01D12069B0B1206A411CB4
:101E00002162216800784860E08C401E0004000CCC
:101E1000E084E3D12068C16821F08001C1602068BE
:101E2000C16841F04001C160D8E7206A0088C0F372
:101E300008004860206A801C2062E5E74006CDD596
:101E40005006CBD5CA68204622F04002CA6084F80A
:101E5000413000F0C5F8C1E74727000870B504001D
:101E600004D094F84100002510B106E0012070BDB7
:101E700084F84050204600F023F8242084F84100E4
:101E80002068C16821F40051C160204600F0ECFCDC
:101E90002068016921F4904101612068416921F0C5
:101EA0002A0141612068C16841F40051C160656444
:101EB000202084F8410084F842006563002070BD52
:101EC00070B586B0002400940194029403942E4EC1
:101ED00003682E49022003222D4DB34228D18B697D
:101EE00043F480438B618B6903F4804304938B69D3
:101EF00043F008038B618969039201F008010491A2
:101F00004021CDE9001069462846FEF767FD802094
:101F1000CDE90004694628460294FEF75FFD1D489E
:101F2000416841F0E06141F00401416006B070BDDC
:101F3000194EB342FAD1CB6943F48023CB61CB690C
:101F400003F4802304938B6943F008038B61896950
:101F5000039201F0080104913115CDE900106946A2
:101F60002846FEF73BFDF014CDE9000469462846FB
:101F70000294FEF733FD002211462720FEF790FE63
:101F80002720FEF77FFED1E7003801400010024015
:101F9000000C0140000001400048004090F8423031
:101FA000202B01D00220704721B11AB10023036316
:101FB00000F0B6BC0120704700680649884207D18E
:101FC0000549012008700246491C0448FFF7E6BF96
:101FD0007047000000480040000000202C03002053
:101FE0007047FEE70F4810B50D49016009214160B7
:101FF00000214FF480228160C0E903129200426107
:10200000017641768176C17601774177FEF746FB0E
:10201000002803D0BDE81040FEF73BB910BD00001A
:10202000006400409C010020F0B585B000200090C5
:102030000190029003901D48816941F02001816167
:10204000816901F020010491816941F004018161FD
:10205000816901F004010491816941F00801816105
:102060008069134E00F008000490012230213046B0
:10207000FEF7A4FD0F4F012203213846FEF79EFD17
:1020800001243020CDE90004032569463046CDE91E
:102090000245FEF7A3FCCDE9005469463846CDE978
:1020A0000245FEF79BFC05B0F0BD000000100240A9
:1020B00000080140000C014010B596B000240F94B8
:1020C00010941194129413941C2168461494FEF7F2
:1020D0007BF8202107A8FEF777F82C482A490160F1
:1020E0004721C0E901146321C0E9031444618461FC
:1020F000FFF7E8F808B1FEF7CCF84FF480500F90E6
:102100000FA92248FFF762F908B1FEF7C2F81F488D
:10211000FFF7DFFB08B1FEF7BCF8139413A91B48C7
:102120001494FFF79BF808B1FEF7B3F86020CDE9EF
:102130000004029403940494059400226946134811
:102140000694FFF760FB08B1FEF7A3F80422694686
:102150000E48FFF758FB08B1FEF79BF80794089468
:1021600009944FF400500A94CDE90B4007A90748A1
:102170000E94FFF749F808B1FEF78BF80348FFF714
:1021800019FB16B010BD0000002C0140C401002056
:1021900010B58CB024216846FEF716F800241548C7
:1021A00009944FF080410A94C0E900144FF6FF7182
:1021B000C0E90241046184610320CDE900040120EB
:1021C000CDE902040494CDE9054007946946094825
:1021D0000894FFF769F908B1FEF75BF8099409A9BB
:1021E00004480A94FFF73AF8002801D0FEF751F8A6
:1021F0000CB010BD0C02002010B58CB02421684634
:10220000FDF7E2FF00241648099414490A94C0E936
:1022100000144FF6FF71C0E902410461846103209C
:10222000CDE900040120CDE902040494CDE9054084
:10223000079469460A480894FFF736F908B1FEF793
:1022400028F8099409A906480A94FFF707F8002816
:1022500001D0FEF71EF80CB010BD000000040040D5
:102260005402002010B586B0002417480094019451
:1022700002940394049413490594016041F61F41AC
:10228000C0E901146321C0E903148461FFF71AF85F
:1022900008B1FDF7FEFF4FF48050009069460A48F0
:1022A000FFF794F808B1FDF7F4FF049404A9064879
:1022B0000594FEF7D3FF002801D0FDF7EAFF06B032
:1022C00010BD0000000800409C0200200C4810B522
:1022D0000A4901604FF4E1314160002181600C2224
:1022E000C160C0E904128161C161FFF7B7FD002838
:1022F00003D0BDE81040FDF7CCBF10BD0038014051
:10230000E40200200C4810B50A4901604FF4E131A5
:102310004160002181600C22C160C0E9041281612A
:10232000C161FFF79BFD002803D0BDE81040FDF719
:10233000B0BF10BD004800402C030020FEE7FEE7C0
:102340002DE9F047040011D0206C60648146E06BF9
:102350002064C4E906218046104601F0F5F80546E0
:10236000E063207828B101283BD038E00020BDE8A8
:10237000F0872946606800F0DFFF60622946A068A8
:1023800000F0DAFFA16A00F0FBFE0646A062606B77
:10239000A063206B60634146284601F0D5F80146F2
:1023A0002063E06800F0C8FFE0623046616901F038
:1023B0008FF8606908D380F00040A16A01F088F8C6
:1023C00003D2606980F00040A062D4E9090100F006
:1023D000D7FEE16A31E0206980F000402062206A87
:1023E000C5E74146284601F0AFF8616800F0A4FF58
:1023F000074660622946A06800F09EFF0646A0627C
:10240000606BA063206B60630121404601F043F9DB
:10241000294601F08EF8494600F0B2FE01462063DD
:10242000E06800F089FF0546E0623146384600F07A
:10243000A7FE294600F0A4FE216A00F0A1FE20625A
:10244000216901F045F82069C8D380F00040216A75
:1024500001F03EF8C3D2BEE710B50028029C16D0AA
:10246000002A14D00170116841605168816000F148
:102470000C0C91688CE81A000021816341630163B0
:102480000162C1628162416241640164C16310BD45
:1024900070477047FEF79EBB30B58FB02821684665
:1024A000FDF792FE14210AA8FDF78EFE0121080413
:1024B000CDE900100024029402250491CDE90750D3
:1024C0004FF4E01009906846FEF7F8FC08B172B6C8
:1024D000FEE70F20CDE90A054FF48060CDE90C40FE
:1024E00002210AA80E94FEF70DFC002801D072B656
:1024F000FEE70FB030BD70470148FFF7C3B80000DA
:102500009C020020F0B50268194B1A4C1A4D4FF08E
:102510008047984205D0B84203D0A04201D0A842DB
:1025200003D122F070064A683243984205D0B8427F
:1025300003D0A04201D0A84203D122F44074CA685B
:1025400022434C6922F08002224302608A68C26200
:102550000A688262984201D10969016301214161DF
:102560000169C90703D0016921F001010161F0BDD2
:10257000002C0140000400400008004010B501F0AC
:102580001F030121046A99408C430462016A9A4046
:102590001143016210BD10B5846842EA032224F49D
:1025A0007F440A432243826010BD826822F0700299
:1025B0000A4342F0070181607047000030B5036AAA
:1025C000026A22F0010202624268846924F0730503
:1025D0000C682C4323F002058B682B430A4DA8425C
:1025E0000BD123F00805CB6822F440722B434D69D0
:1025F00023F0040315438A692A43426084614968D1
:102600004163036230BD0000002C014030B5026A16
:10261000036A23F010030362436884690D6824F49D
:10262000E64444EA05248D6822F0200242EA0512BD
:102630000B4DA8420ED1CD6822F0800242EA05126D
:102640004D6923F4406343EA85038D6922F040021B
:1026500043EA85034360846149688163026230BD57
:10266000002C014030B5036A026A22F480720262D3
:102670004268C46923F4007324F073050C682C438A
:102680008D6843EA05230C4DA8420ED1CD6823F492
:10269000006343EA05234D6922F4405242EA0512E1
:1026A0008D6923F4806342EA05124260C46149687F
:1026B000C163036230BD0000002C014030B5046AE4
:1026C000026A22F4805202624268C3690D6823F4F0
:1026D000E64343EA05238D6824F4005444EA0534B4
:1026E000064DA84204D14D6922F4804242EA851287
:1026F0004260C36149680164046230BD002C01403E
:1027000010B5036A046A24F001040462846924F0A9
:10271000F00444EA021423F00A020A4384610262CC
:1027200010BD10B5036A046A24F0100404628469C1
:1027300023F0A00324F4704444EA023243EA011176
:102740008261016210BD10B5406A0021C185C1845B
:10275000FFF74CFA10BD01680C3151E8002F22F44C
:10276000907241E80023002BF5D10168143151E843
:10277000002F22F0010241E80023002BF5D1016B6C
:10278000012909D101680C3151E8002F22F0100213
:1027900041E80023002BF5D1202180F842100021D0
:1027A0000163704708B590F84210222901D0022039
:1027B00008BD82684FF480539A4201D1016921B16A
:1027C000816A9A421BD04AB10AE00268816A526863
:1027D000C2F308020A80816A891C08E0026972B1AA
:1027E0000268526802F07F020A70816A491C8162A5
:1027F000C18D491E0904090CC18503D01BE0026884
:102800005268F1E70168CA6822F02002CA600168D4
:10281000CA6822F48072CA6001684A6922F0010223
:102820004A61202180F8421000214163026B012A95
:1028300003D0FFF7C1FB002008BD016301680C3124
:1028400051E8002F22F0100241E80023002BF5D1BF
:1028500001680A68D20602D50A6849680091818D2C
:10286000FFF7C3F9E7E7000070B5044600680169A7
:10287000E26821F44051114301612169A0680843D5
:10288000616908432168CA6841F20C639A430243B4
:10289000CA6020684169A26921F440711143416115
:1028A0001E492068884202D1FEF7D2FA01E0FEF705
:1028B000BFFA00EBC00101EB0012606864218000E8
:1028C000B2FBF0F3B3FBF1F36FF018067343B2FB06
:1028D000F0F5B2FBF0F605EB8305322303EB0515AB
:1028E000B5FBF1F5B6FBF1F605F0F00505EB0615C5
:1028F000B2FBF0F6B2FBF0F0B0FBF1F06FF01802B3
:10290000504306EB800003EB0010B0FBF1F02168B0
:1029100000F00F002844886070BD000000380140BE
:1029200081628285C28500214164222180F84210A3
:10293000016921B10168CA6842F48072CA60016805
:102940004A6942F001024A610068C16841F0200111
:10295000C1600020704700000148FFF749B900003E
:102960002C0300200148FDF79BBD00009C010020C6
:102970000148FDF795BD00009C010020FEE7090716
:10298000090E002804DB00F1E02080F800147047F5
:1029900000F00F0000F1E02080F8141D70470000E7
:1029A0008CB0FEF71FF9FFF777FDFFF73DFBFFF750
:1029B00083FBFFF7EDFBFFF71FFCFFF753FCFFF76F
:1029C000A1FCFFF783FCFFF70DFB00217448FEF725
:1029D000AFFF04217248FEF7ABFF3C217148FEF7C0
:1029E00009FE3C217048FEF705FE7048FEF7C2FC68
:1029F0006C480024006844626B48006844626D4E75
:102A00006B4D33466C4A21466C480095FFF724FD18
:102A10006B4F694A69483B460C3A002148300095A3
:102A2000FFF71AFD644A654833461832002190309A
:102A30000095FFF711FD604A60483B460C320021CB
:102A4000D8300095FFF708FD01225E495E48FFF788
:102A5000A5FA42F26040CDE901044FF6E070CDE9FD
:102A60000304059401250694CDE9074501A95748BB
:102A70000995FDF723FC5548FDF70EFF0221534849
:102A8000FDF709FC4FF4FA714FF4B4634D484A4224
:102A90005E42401E0778EFB304704778002F78D06D
:102AA0004778012F49D04778F12F6FD04778022F10
:102AB0004CD04778F22F66D04778032F46D047781E
:102AC000F32F60D04778042F37D04778F42F5DD0AC
:102AD0004778052F42D04778F52F45D04778062F05
:102AE00044D04778F62F47D04778072F51D0477802
:102AF000F72F4ED04778082F28D04778F82F42D0AC
:102B00004778092F19D04778F92F3FD047780A2FF7
:102B10003FD000E002E04778FA2F3AD0C76C97B177
:102B2000D0F830C0076AA7EB0C07C760D0F848C0E0
:102B3000876BA7EB0C070761ACE7C464C0E90841E9
:102B40000FE004638464C4600461A3E7C464C0E963
:102B500008420EE00463C0E91245E1E7C464C0E93D
:102B60000842C0E90E42ECE7194F07E0C464C0E92F
:102B70000841C0E90E41E4E74FF434770762876308
:102B8000E8E706E002E006628363E3E78663036248
:102B9000E0E7C464046284634462C463D1E7000074
:102BA000C40100200C020020540200209C020020DE
:102BB00000007A440000FA4320370008600000203B
:102BC0000000F041010000202C0300209C010020A7
:102BD00030FDFFFF10B591EA030F48BF83F00043BB
:102BE00000F1EC81841A71EB030C05D2121943EB4E
:102BF0000C03001B61EB0C01DFF824E14FEA1154D8
:102C0000A4EB135C1EEA430F18BF9EEA445F73D027
:102C100023EA0E03DCF1200E21EA045143F4801371
:102C200032D322FA0CFE10EB0E0023FA0CFE41EB1D
:102C30000E01CCF1200E03FA0EFE10EB0E0051F146
:102C40000001B1F5801FCCF1200E32D201EB04510E
:102C500012FA0EF2BDE8104058BF7047401C38BF52
:102C60005FEA420218BF7047002814BF20F001003D
:102C700041F100014FEA410313F5001F38BF7047CF
:102C8000A1F1C04100F08CB9012A43EB0302ACF181
:102C9000200CDCF11F0E32BF4FF0000E23FA0CF3B4
:102CA00010EB030041EB0451B4EB115FD0D0A1EB6A
:102CB000045101F5801149085FEA300001EB04512D
:102CC0000ED350F1000038BF12FA0EFE08D1BDE855
:102CD0001040C9E7401C38BF5FEA4202CAD1C3E7CF
:102CE000BDE810404FEA410313F5001F38BF70479D
:102CF000A1F1C04100F054B99EEA445F08D011EA46
:102D00005E0FBDE8104004BF01F000410020704795
:102D1000BDE8104070B500F0F5F800BF64FBBE3EA2
:102D20000000E0FF4FEA41034FEA5353A3F58063ED
:102D3000D3F11E03C8BFD3F1210C0CDD4FF00042CC
:102D400042EAC12242EA505232FA03FC8CEAE17CA8
:102D5000ACEBE1707047102BC4BF0020704703F547
:102D6000787CBCF1FF3F04D06FF0004282EA210082
:102D7000704770B500F0C6F8499224800020704773
:102D8000F2E710F0004248BF4042B0FA80F310FA78
:102D900003F10AD0C3F11D0303F580634FEA4150EC
:102DA00002EB035202EBD12170474FF00000704755
:102DB000DFF848C170B51CEA111E1EBF1CEA1315CE
:102DC0009EEA0C0F95EA0C0F00F06F8081EA030475
:102DD00023EA4C134EEAD47E21EA4C1141F48011CF
:102DE00043F48013AE44A1FB024CA0FB0365AEF19B
:102DF0007F7E361955EB0C05A1FB034C4CF100030B
:102E0000A0FB021C16EB0C06654153F100030942BE
:102E100018BF46F0010613F4007F0BD14FEA0331CF
:102E20004FEA0530340341EA155140EA16506FF07D
:102E300003020AE04FEAC3214FEAC520F40241EA47
:102E4000555140EA56506FF0020202EB2E4201EB60
:102E5000025585EACE710AD05FEA440C18BF24F00F
:102E6000004450F1000041F1000120EAD47040F22A
:102E7000FE7C624500D270BDA84214BF4FF0804472
:102E80004FF04044002E08BF0024BEF1806FA8BF61
:102E9000A1F1C041BDE8704080F282804FF0000097
:102EA00001F1C04101F0004170479EEA0C0F0CEAAD
:102EB000131518BF95EA0C0F06D04FF0000081EAF9
:102EC000030E0EF0004170BD00F01CF88900013EB9
:102ED00000F007B800F009B84FEA430C5FEA5C5C09
:102EE00008D081EA030100F05BB84FEA410C5FEAC9
:102EF0005C5CF6D14FF00000014970470000FF070D
:102F00000000F87F0EF1020E2EF0030E5EF8046B47
:102F1000364205D4012A43EB030515F5001F12D8EC
:102F2000012841EB010C1CF5001F0CD80ED14FEA13
:102F3000D17C15F5001F0CEB4C0C0CF1020C08BFFA
:102F40004CEBD37C04E04FF0080C01E04FEAD37C5B
:102F50000CEB4C0526FA05F606F00706B6F1040C54
:102F600006D20EEB860CBDE870404CF0010C6047B9
:102F7000DFE80CF0090B02024FF000414FF00000B7
:102F8000A1F5002170BD19461046012851EB01043E
:102F900018BFD4F5001484BF002001F0004170BDBB
:102FA0000808A0F500114FEA3101704710B591EA09
:102FB000030F48BF83F000433FF514AE841A71EB52
:102FC000030C07D212198CF0004C43EB0C03001BCE
:102FD00061EB0C01DFF8A4E14FEA1154A4EB135CA0
:102FE0001EEA430F18BF9EEA445F00F0B08023EA58
:102FF0006E03524221EA0451C3EB6E0338BF5B1EDD
:10300000DCF1200E25D322FA0CFE10EB0E0043FA61
:103010000CFE41EB0E01CCF1200E03FA0EFE10EB7C
:103020000E0051F10001CCF1200E29D412FA0EF25B
:1030300001EB0451BDE8104058BF7047401C1CBF55
:10304000B2F1004F704700280CBF491C20F001006E
:10305000704712EB020E43EB030218BF4FF0010E54
:103060004EEA4202ACF1200CDCF11E0E54D943FAB8
:103070000CFE10EB0E0051F1FF31CCF11E0ED5D538
:103080000EF1010E12FA0EFE404141EB010101EB7F
:10309000445C5FEA5C5C10D910EBDE7001EB04511C
:1030A00038BFBEF1004FBDE8104018BF7047002880
:1030B0000CBF491C20F00100704730D24FEAD42CDD
:1030C00011F5001124F400641BD0B1FA81F20B3A1F
:1030D000A41AA41ED2F12003914030FA03F319433D
:1030E000904001EBCC71002C01EB0451BDE8104085
:1030F000A8BF704701F1C0414FF0000001F000414E
:103100007047B0FA80F310FA03F100D110BDE41A51
:10311000173C4805C90AE4E701EB045110BD49100A
:1031200001EB0451BDE810404FEA300002E04FF0DF
:10313000000170474A0008BF0042F8D0B2F5001FF6
:1031400028BF704701F000414FF0000070479EEA31
:10315000445F07D011EA5E0FBDE8104004BF0021B4
:1031600000207047BDE8104070B5FFF7CBFE00BFF0
:1031700040DFF63E83F00041104670470000E0FF5C
:1031800090EA010F48BF81F0004100F1E481421A4A
:103190003CBF801A89184FEAD0524FF07F4C1CEA8E
:1031A000410FA2EBD15318BF9CEA026F00F03B80A5
:1031B0004FF0004C4CEA00204CEA012121FA03FCBC
:1031C00010EB0C0C1ED202F1FF325FEA1C2040EB28
:1031D000C25038BF70471CF07F0F4FEA400C18BF39
:1031E000BCF17F4F38BF7047C3F12003994008BF3F
:1031F00020F00100BCF17F4F38BF7047A0F1C04004
:1032000000F061B94FEA3C00000A40EBC25028BF11
:103210001CF0FF0F4FEA400CE6D018BFBCF17F4F07
:1032200038BF7047EAE79CEA026F05D010EA5C0FEE
:1032300008BF00F00040704710B500F0FEF800BF76
:1032400064FBBE3E014800F0F4B900BF0000C07F3F
:10325000401058BFC0F14040491058BFC1F1404133
:103260008142EFF30080704741000B0ED3F19E02C4
:1032700008D950F400034FEA032323FA02F048BFB1
:103280004042704710B500F0D8F800BF4992248042
:10329000002070476FF0004282EA20007047000073
:1032A00010F0004148BF4042B0FA80F310FA03F238
:1032B000C3F19D030BD051EAC35101EB1220530619
:1032C00038BF704700F1010008BF20F001007047CF
:1032D00050EA010C00F113801CF5000F58BFBCF53B
:1032E000000F01D48842704707D710F5000F58BF70
:1032F00011F5000F15D488427047894270471CF5BC
:10330000000F04D5BCF5000FF7D5814270474FF090
:10331000807C1CEB400F38BF1CEB410F01D2814277
:10332000704710B500F089F8922449004FF0005022
:103330004FF08051FFF78CBF4FF47F0C1CEAD01286
:103340001EBF1CEAD11392EA0C0F93EA0C0F00F097
:10335000478090EA010F48BF42F480724FF0004C62
:103360004CEA00204CEA012102EB0302A0FB01130E
:10337000A2F50002002918BF43F001035B0028BF3B
:103380004FEA330342EB22425FEA132C4CEBC2506C
:103390002EBFBCEB436FB2F57C0F70474FEA036C56
:1033A000BCF1004F08BF20F00100B2F57C0F38BF20
:1033B00070470BD582F0FF0212F5803FC8BF7047FF
:1033C00000F1C040D8BF00F00040704700F5000C8D
:1033D0005FEA4C0C48BF7047B0F1C04000F073B8D2
:1033E00090EA010F0CEAD11348BF42F480726245A3
:1033F00038BF634504D280EA010000F00040704706
:1034000010B500F01AF800BF8900013E00F007B8BF
:1034100000F009B85FEA410C5FEA1C6C08D080EA52
:10342000010000F050B85FEA400C5FEA1C6CF6D176
:103430004FF00040A0F5800070470EF1020E2EF014
:10344000030E5EF8044B244204D44FEA4102B2F169
:103450007F4F11D84FEA4003B3F17F4F0CD80ED104
:103460004FEAD07CB2F17F4F0CEB4C0C0CF1020C0C
:1034700008BF4CEBD17C04E04FF0080C01E04FEAB0
:10348000D17C0CEB4C0324FA03F404F00704B4F1F0
:10349000040C06D20EEB840CBDE810404CF0010C7D
:1034A0006047DFE80CF0070802024FF00040A0F58B
:1034B000800010BD0846420018BFD2F1807288BF5C
:1034C00000F0004010BDFF2141EAD050C005704718
:1034D00051EA000C00F113801CF5000F58BFBCF539
:1034E000000F01D48142704707D711F5000F58BF74
:1034F00010F5000F15D481427047894270471CF5C2
:10350000000F04D5BCF5000FF7D5884270474FF087
:10351000807C1CEB410F38BF1CEB400F01D288426E
:10352000704780EA010081EA000180EA0100FFF7AC
:10353000F8BE80F0004090EA010F7FF528AE81F0E0
:10354000004100F008B8000090EA010F48BF81F088
:1035500000413FF51CAE421A04D882F00042A0EBB5
:10356000020011444FEAD0524FF07F4C1CEA410F49
:10357000A2EBD15318BF9CEA026F4AD04FF0004C27
:103580004CEA00204CEA012121FA03FCB0EB0C0CC0
:103590000FD412F0FE0F36D05FEA4C001DD500129A
:1035A00040EBC25038BF70471CF03F0F18BF704748
:1035B0000BE0A2F101025FEA1C2040EBC25038BFD1
:1035C00070471CF07F0F18BF7047C3F1200399406C
:1035D00014BF401E20F00100704780084FEA1223FC
:1035E00008BF7047B0FA80FCA2EB0C02CCF1280CAB
:1035F00060FA0CF093EA122F04BF00EBC250704740
:103600004FEAC3707047130A5FEADC1008BF7047C7
:10361000F6E79CEA026F04D010EA5C0F08BF0020B6
:10362000704710B5FFF709FF40DFF63E81F000401C
:1036300070470CF00F03092B08BF082000F05180E1
:103640000A2B0BD0082B18BF704708BF1CF0400F87
:103650000AD04FF000004FF0000170471CF0400FFF
:1036600018BF4FF0004070471CF0100F08D020F03A
:10367000704300F07F4242EAD3014FEA4370704743
:1036800000F0604021F07F4242EA000201F07F40FA
:1036900040EA727070474FF0FF0212EAD0521CBF2E
:1036A00092F0FF038B42C2BFD14200EBC150704782
:1036B000002A0AD0002B0BD0002900F00040A4BF44
:1036C00040F0FE4040F40000704700F000407047BA
:1036D00043024FF00B0C18BF4CF0806C7FF4B2AD7E
:1036E00070471CF4801F11D01CF4E02F03D06FEA48
:1036F000CC31490070474FF04050EFF3008222F088
:10370000704242EA000282F3008870474FF00000E6
:10371000704700008FC2F53D0AD7233C000000002F
:1037200000008040C3642A3B000000008FC2F53DCA
:103730000AD7233C00000000000080403480373B63
:1037400000000000010202030405060708090A0B35
:103750000C0D0E0F10100000000000000000010210
:10376000030406070809000000000102030400002A
:1037700090370008000000206000000028010008C9
:10378000F0370008600000207809000044010008BC
:103790000000000000000000000000000000000029
:1037A0000000000000000000000000000000000019
:1037B0000000000000000000000000000000000009
:1037C00000000000000000000000000000000000F9
:1037D00000000000000000000000000000000000E9
:1037E00001000000100000000000000000127A003C
:04000005080000ED02
:00000001FF
